:10000000709200205D0400005904000059040000B3
:1000100059040000590400005904000000000000C9
:100020000000000000000000000000005904000073
:1000300059040000000000005904000059040000A9
:10004000590400005904000059040000590400003C
:10005000590400005904000059040000590400002C
:10006000590400005904000059040000590400001C
:10007000590400005904000059040000590400000C
:1000800059040000590400005904000059040000FC
:1000900059040000590400005904000059040000EC
:1000A00059040000590400005904000059040000DC
:1000B00059040000590400005904000059040000CC
:1000C00059040000590400005904000059040000BC
:1000D00059040000590400005904000059040000AC
:1000E0005904000059040000000000000000000056
:1000F00000000000590400005904000059040000E9
:10010000590400005904000059040000590400007B
:10011000590400005904000059040000590400006B
:10012000590400005904000059040000590400005B
:10013000590400005904000059040000590400004B
:10014000590400005904000059040000590400003B
:1001500059040000590400000000000000000000E5
:10016000000000000000000000000000000000008F
:10017000000000000000000000000000000000007F
:1001800059040000590400005904000059040000FB
:1001900059040000590400005904000059040000EB
:1001A00059040000590400005904000059040000DB
:1001B00059040000590400005904000059040000CB
:1001C00059040000590400005904000059040000BB
:1001D00059040000590400005904000059040000AB
:1001E000590400005904000059040000590400009B
:1001F000590400005904000059040000590400008B
:100200005904000000000000000000005904000034
:10021000590400005904000059040000590400006A
:10022000590400005904000059040000590400005A
:10023000590400005904000059040000590400004A
:10024000590400005904000059040000590400003A
:10025000590400005904000059040000590400002A
:1002600010402DE928409FE50030D4E5000053E31D
:100270000500001A1C309FE5000053E318009F158D
:100280000000A0110130A0E30030C4E51040BDE83B
:100290001EFF2FE17010002000000000D0160000AB
:1002A0001C309FE5000053E31EFF2F0110402DE995
:1002B00010109FE510009FE50000A0E11040BDE890
:1002C0001EFF2FE10000000074100020D016000077
:1002D00000400FE10D30A0E10F1014E21D00000AF4
:1002E0000A0051E31B00000AD110A0E301F021E154
:1002F00003D0A0E101AA4DE20A30A0E1D710A0E3AB
:1003000001F021E103D0A0E1013A43E2DB10A0E3D8
:1003100001F021E103D0A0E1013A43E2D210A0E3D1
:1003200001F021E103D0A0E1023A43E2D310A0E3BF
:1003300001F021E103D0A0E1023943E2FF30C3E341
:10034000FF3CC3E3DF10A0E301F021E103D0A0E113
:10035000C04084E304F021E101A843E21EFF2FE145
:1003600088309FE5000053E374309F0503D0A0E17F
:10037000D6FFFFEB0010B0E301B0A0E10170A0E1F7
:100380006C009FE56C209FE5002052E0B00100EB7F
:1003900050309FE5000053E30100000A0FE0A0E1A8
:1003A00003F0A0E140309FE5000053E30100000AA4
:1003B0000FE0A0E103F0A0E10000B0E30010B0E323
:1003C0000040B0E10150B0E12C009FE5450000EB9A
:1003D0003B0200EB0400B0E10510B0E1070000FAB9
:1003E000480000EB000008000000000000000000D2
:1003F000000000007000002070100020440D00007C
:10040000FEE700BFFEE700BF0020704700207047F6
:100410000020704710467047054A06490346106899
:1004200003448B4294BF13604FF0FF30704700BF0E
:100430000400002070100020014B024A1A6070472F
:1004400008000020006CDC02014B024A1A60704771
:1004500008000020006CDC02FEE700BF08B5184869
:10046000184B83420AD0184A904207D2013A121A16
:1004700022F003020432194600F09EFC134A144B8A
:10048000934208D2013AD21A22F003020432002128
:10049000184600F0DFFA0F4B0F49104A23F07F0394
:1004A0008B6002B1904700F00DFC0D4B03B19847F3
:1004B000FFF7A6FF0B4B0BB1984708BDFEE700BF47
:1004C00000000020D41600007000002070100020F2
:1004D000700000200000000000ED00E000000000BF
:1004E00000000000000000000030A0E310402DE9F3
:1004F0000010A0E10320A0E10300A0E1340200EB22
:100500001040BDE81EFF2FE12C309FE5000053E3B3
:1005100010402DE90040A0E10010A0137102001B63
:1005200018309FE5003093E5000053E30FE0A01181
:1005300013FF2F110400A0E1B1FFFFFAE80E000045
:10054000C41100200030A0E310402DE90040A0E1DC
:10055000003080E5043080E5083080E5BC10C0E163
:10056000643080E5BE20C0E1103080E5143080E5C5
:10057000183080E50820A0E30310A0E15C0080E2D1
:10058000330100EB54309FE5243084E550309FE583
:10059000283084E54C309FE52C3084E548309FE5D9
:1005A000303084E544309FE5682043E2020054E1A6
:1005B000030054110130A0030030A013D02082E2C8
:1005C000020054E101308303000053E3204084E53E
:1005D00058008412EC01001B1040BDE81EFF2FE103
:1005E00078090000B40900000C0A0000400A00006D
:1005F000F410002010402DE910209FE510109FE519
:1006000010009FE5BF0000EB1040BDE81EFF2FE18A
:100610000C0000203C1500001C000020041090E598
:100620003C309FE5030051E110402DE90040A0E17E
:10063000C103001B081094E528309FE5030051E139
:100640000400A011BC03001B0C1094E518309FE5BA
:10065000030051E10400A011B703001B1040BDE8E6
:100660001EFF2FE18C100020F41000205C110020F0
:10067000643091E5010013E30800001ABC30D1E1B9
:10068000020C13E30500001A10402DE9580091E513
:10069000C10100EB0000A0E31040BDE81EFF2FE108
:1006A0000000A0E31EFF2FE1643091E5010013E399
:1006B0000800001ABC30D1E1020C13E30500001A57
:1006C00010402DE9580091E5B90100EB0000A0E3CE
:1006D0001040BDE81EFF2FE10000A0E31EFF2FE148
:1006E00044309FE544209FE510402DE90410A0E32D
:1006F000002083E538009FE50020A0E390FFFFEB9A
:100700002C309FE50340A0E10120A0E30910A0E305
:10071000680083E28AFFFFEBD00084E20220A0E3BE
:100720001210A0E31040BDE885FFFFEAC4110020CD
:10073000F40500008C10002010402DE908009FE512
:10074000950100EB1040BDE81EFF2FE1D311002002
:1007500010402DE908009FE5950100EB1040BDE831
:100760001EFF2FE1D3110020F0412DE90070A0E120
:10077000F0FFFFEBEC309FE5003093E5000053E322
:10078000D6FFFF0BE0609FE5180096E9013053E2C9
:100790000C00005A005096E5000055E32F00001AA7
:1007A0006B1FA0E30700A0E17C0200EB004050E2D9
:1007B0002000001A004086E5E4FFFFEB0C30A0E3C8
:1007C000003087E5160000EAFC50D4E1000055E354
:1007D0001600001A94309FE5580084E20C3084E53E
:1007E000645084E5680100EBD8FFFFEB0820A0E32C
:1007F0000510A0E1005084E5085084E5045084E52C
:10080000105084E5145084E5185084E55C0084E2BF
:100810008F0000EB345084E5385084E5485084E57F
:100820004C5084E50400A0E1F041BDE81EFF2FE13B
:10083000684084E2D4FFFFEA0430A0E30510A0E1A1
:10084000005084E50450A0E10C0084E21A2EA0E3DD
:10085000043084E5080084E57D0000EB004086E577
:100860000560A0E1C7FFFFEAC41100200C000020D2
:100870000100FFFF10402DE90040A0E1ADFFFFEBBC
:10088000203094E5000053E30100000A1040BDE869
:10089000AEFFFFEA18309FE5203084E514309FE575
:1008A000003093E5000053E3F7FFFF1A8BFFFFEBE7
:1008B000F5FFFFEA1C060000C411002010402DE9DE
:1008C0009CFFFFEB0000A0E30C209FE50C109FE5D0
:1008D0000C0000EB1040BDE81EFF2FE10C000020D3
:1008E0007006000010402DE90000A0E30C209FE5F9
:1008F0000C109FE5030000EB1040BDE893FFFFEAFA
:100900000C000020A8060000F0472DE90070A0E1CF
:100910000180A0E10240A0E10060A0E3085094E55E
:10092000049094E5019059E20500005A004094E5D6
:10093000000054E3F8FFFF1A0600A0E1F047BDE80D
:100940001EFF2FE1BC30D5E1010053E30700009A00
:10095000FE30D5E1010073E30400000A0510A0E1B8
:100960000700A0E10FE0A0E118FF2FE1006086E1A1
:10097000685085E2EAFFFFEA10402DE90140A0E15E
:10098000FE10D1E1AC0000EB000050E3543094A520
:10099000BC30D4B1003083A0013AC3B3543084A535
:1009A000BC30C4B11040BDE81EFF2FE10000A0E341
:1009B0001EFF2FE1F0412DE90370A0E1BC30D1E131
:1009C000010C13E30050A0E10140A0E10260A0E1AE
:1009D0000300000A0230A0E30020A0E3FE10D1E1F2
:1009E000840000EBBC30D4E1013AC3E3BC30C4E185
:1009F0000620A0E10730A0E10500A0E1FE10D4E14F
:100A00009E0000EBF041BDE81EFF2FE110402DE9F4
:100A10000140A0E1FE10D1E1760000EBFC30D4E112
:100A2000010070E3013AC303013A8313BC30C401EF
:100A3000BC30C411540084151040BDE81EFF2FE1E6
:100A400010402DE9FE10D1E1070000EB1040BDE899
:100A50001EFF2FE10030A0E1022080E0020053E100
:100A60001EFF2F010110C3E4FBFFFFEA0030A0E3EB
:100A700070402DE928509FE50040A0E10100A0E171
:100A8000003085E560FEFFFA010070E30200001A05
:100A9000003095E5000053E3003084157040BDE858
:100AA0001EFF2FE1C811002044319FE5003093E57F
:100AB000000053E11EFF2F011C3090E5000053E3BE
:100AC00070402DE90040A0E12200000A0C3093E5BF
:100AD000000053E30C00000A0050A0E31C3094E532
:100AE0000C3093E5051093E7000051E31400001A61
:100AF000045085E2800055E3F7FFFF1A1C3094E5AF
:100B00000400A0E10C1093E5440100EB1C3094E5D7
:100B1000001093E5000051E30400A0113F01001B09
:100B20001C3094E5085093E5000055E30900000AE5
:100B30000510A0E10400A0E1005095E5370100EBAD
:100B4000F8FFFFEA006091E50400A0E1330100EB4B
:100B50000610A0E1E3FFFFEA141094E5000051E362
:100B60000400A0112D01001B1C1094E5000051E3AE
:100B70000400A0112901001B301094E5000051E38E
:100B80000400A0112501001B341094E5000051E37E
:100B90000400A0112101001B381094E5000051E36E
:100BA0000400A0111D01001B481094E5000051E352
:100BB0000400A0111901001B441094E5000051E34A
:100BC0000400A0111501001B2C1094E5000051E356
:100BD0000400A0111101001B203094E5000053E334
:100BE0000400A0117040BD1813FF2F117040BDE824
:100BF0001EFF2FE11800002070402DE90040A0E109
:100C00000100A0E10210A0E10020A0E324509FE534
:100C1000002085E50320A0E1FAFDFFFA010070E362
:100C20000200001A003095E5000053E300308415FF
:100C30007040BDE81EFF2FE1C811002070402DE973
:100C40000040A0E10100A0E10210A0E10020A0E32B
:100C500024509FE5002085E50320A0E1EBFDFFFA8D
:100C6000010070E30200001A003095E5000053E334
:100C7000003084157040BDE81EFF2FE1C811002030
:100C800070402DE90040A0E10100A0E10210A0E1C8
:100C90000020A0E324509FE5002085E50320A0E18B
:100CA000DBFDFFFA010070E30200001A003095E559
:100CB000000053E3003084157040BDE81EFF2FE1B3
:100CC000C811002070402DE90060A0E360509FE54E
:100CD00060409FE5054044E04441A0E1040056E146
:100CE0000900001A690200EB0060A0E348509FE58C
:100CF00048409FE5054044E04441A0E1040056E13E
:100D00000600001A7040BDE81EFF2FE1043095E494
:100D10000FE0A0E113FF2FE1016086E2EEFFFFEAA2
:100D2000043095E40FE0A0E113FF2FE1016086E2BB
:100D3000F1FFFFEAA8160000A8160000A8160000A0
:100D4000AC16000070402DE930509FE530409FE523
:100D5000054044E04441A0E1000054E30200001AD1
:100D6000510200EB7040BDE81EFF2FE1014044E25C
:100D7000043195E70FE0A0E113FF2FE1F5FFFFEA53
:100D8000C4160000C81600001EFF2FE11EFF2FE151
:100D90001EFF2FE11EFF2FE11EFF2FE11EFF2FE19F
:100DA0000100A0E31EFF2FE10100A0E31EFF2FE1E1
:100DB0001EFF2FE11EFF2FE1013040E2022081E003
:100DC000020051E11EFF2F0101C0D1E401C0E3E5A3
:100DD000FAFFFFEAF0472DE9F4509FE50060A0E13B
:100DE000000095E50290A0E10170A0E10380A0E180
:100DF000E9FFFFEBDC209FE5004092E5000054E3B3
:100E00000600001AD0309FE5003082E5CC209FE537
:100E1000000052E300209215BC409FE58820831516
:100E200004E094E51F005EE3040000DA000095E5AD
:100E3000DFFFFFEB0000E0E3F047BDE81EFF2FE11E
:100E4000000056E31A00000A88C094E500005CE345
:100E50000A00001A88309FE5000053E3F2FFFF0A02
:100E6000420FA0E30000A0E100C050E2EEFFFF0A45
:100E70000030A0E300318CE504318CE588C084E5C6
:100E80000120A0E304E094E50E918CE700319CE59D
:100E90000E018CE0123E83E100318CE5808080E51C
:100EA000020056E304319C05121EA0E101308301CB
:100EB00004318C0501308EE202E08EE2043084E5DC
:100EC000000095E50E7184E7B9FFFFEB0000A0E399
:100ED000D8FFFFEA6C00002060120020D41100202F
:100EE0000000000000000000F04F2DE924819FE584
:100EF00014D04DE20C008DE5000098E504108DE55E
:100F000001A0A0E3A4FFFFEB0C919FE5006099E531
:100F1000000056E30400001A000098E5A4FFFFEB70
:100F200014D08DE2F04FBDE81EFF2FE1045096E58E
:100F3000887096E5014045E2015085E2055186E062
:100F400080B087E2000054E3F2FFFFBA04309DE571
:100F5000000053E30800000A000057E30200001AF3
:100F6000014044E2045045E2F5FFFFEA04219BE71B
:100F700004309DE5030052E1F8FFFF1A041096E5E6
:100F8000011041E2040051E10030A013002095E57A
:100F90000440860500308515000052E3EFFFFF0A8C
:100FA000043096E5000057E308308DE50300000AA1
:100FB000001197E51A1411E01A04A0E10900001AC3
:100FC0000FE0A0E112FF2FE1041096E508309DE547
:100FD000030051E1002099E5CBFFFF1A020056E122
:100FE000DEFFFF0AC8FFFFEA04C197E50C0010E12D
:100FF000041197E70300001A0C009DE50FE0A0E143
:1010000012FF2FE1EFFFFFEA0100A0E10FE0A0E1F6
:1010100012FF2FE1EBFFFFEA6C00002060120020BE
:10102000000051E31EFF2F01043011E570402DE94F
:10103000000053E3044041E2034084B00050A0E1CB
:10104000BD0000EBDC209FE5003092E5000053E39B
:101050000500001A043084E5004082E50500A0E1A7
:10106000BB0000EB7040BDE81EFF2FE1040053E120
:101070000700009A000094E5001084E0010053E1AD
:1010800000109305001081000010840504309305C2
:10109000EFFFFFEA0320A0E1043093E5001053E2E4
:1010A0000110A013040053E10010A083000051E3DD
:1010B000F7FFFF1A001092E5010082E0040050E102
:1010C0000B00001A000094E5001081E00200A0E18E
:1010D000011080E6000053E1DFFFFF1A000093E5F6
:1010E000043093E5011080E0001082E5043082E5D1
:1010F000D9FFFFEA0C30A08300308585D6FFFF8A38
:10110000000094E5001084E0010053E10010930515
:10111000043093050010810000108405043084E53C
:10112000044082E5CCFFFFEA6812002070402DE900
:1011300064609FE50140A0E1001096E5000051E3E6
:101140000050A0E10100001A2F0100EB000086E52D
:101150000410A0E10500A0E12B0100EB010070E309
:101160000300001A0040E0E30400A0E17040BDE885
:101170001EFF2FE1034080E20340C4E3040050E17E
:10118000F8FFFF0A001044E00500A0E11E0100EB9B
:10119000010070E3F3FFFF1AF1FFFFEA6412002081
:1011A000F0472DE9035081E20350C5E3085085E282
:1011B0000C0055E30C50A033050051E10010A09342
:1011C0000110A083A51F91E10C30A0130060A0E1E5
:1011D000003080155400001A58719FE5560000EB4E
:1011E000003097E50340A0E1000054E30900001A35
:1011F0000510A0E10600A0E1CBFFFFEB0040A0E15D
:10120000010070E3004097050480A0012100000A5E
:10121000005084E50C0000EA002094E5052052E02F
:101220001700004A0B0052E31000009A051084E0FA
:10123000040053E1005084E504108315043094E564
:1012400000108705052084E7043081E50600A0E151
:101250003F0000EB0B0084E2043084E20700C0E3AF
:10126000032050E000304310023084172F0000EAC2
:10127000042094E5040053E1002087050420831531
:10128000F1FFFFEA0430A0E1044094E5D5FFFFEA56
:101290000840A0E1048098E5000058E3FBFFFF1A36
:1012A000000054E31C00000A0810A0E10600A0E1C1
:1012B000009094E5D40000EB099084E0000059E12F
:1012C0001500001A001094E5015045E00510A0E15A
:1012D0000600A0E194FFFFEB010070E30E00000A9E
:1012E000003094E5053083E0003084E5003097E578
:1012F000042093E5000052E300808705D2FFFF0A37
:101300000320A0E1043093E5040053E1FBFFFF1A42
:101310000030A0E3043082E5CBFFFFEA0C30A0E30D
:101320000600A0E1003086E5090000EB0000A0E324
:10133000F047BDE81EFF2FE16812002010402DE9A4
:1013400008009FE594FEFFEB1040BDE81EFF2FE173
:10135000D011002010402DE908009FE594FEFFEB1E
:101360001040BDE81EFF2FE1D0110020FC20D1E18C
:10137000080012E3F0412DE90050A0E10140A0E196
:101380005400001A043091E5000053E3020000CA43
:10139000403091E5000053E34C0000DA2C7094E5F6
:1013A000000057E34900000A0030A0E3012A12E2DE
:1013B000006095E554209415003085E51400001A6E
:1013C0000130A0E30500A0E1201094E50FE0A0E1CA
:1013D00017FF2FE1010070E30020A0E10C00001ACC
:1013E000003095E5000053E30900000A160053E3BE
:1013F0001D005313006085053400000AFC30D4E161
:101400000000E0E3403083E3BC30C4E1F041BDE8DC
:101410001EFF2FE1BC30D4E1040013E30500000AF5
:10142000043094E5032042E0343094E5000053E3B7
:1014300040309415032042100030A0E30500A0E1E5
:101440002C7094E5201094E50FE0A0E117FF2FE148
:10145000010070E3FC30D4E10600001A001095E5AD
:101460001D0051E3E5FFFF8AC8209FE53221A0E17E
:10147000010012E3E1FFFF0A0020A0E3042084E55D
:10148000102094E5010A13E3002084E50500000A1A
:10149000010070E30200001A003095E5000053E3FC
:1014A0000000001A540084E5341094E5000051E374
:1014B000006085E50500000A443084E2030051E144
:1014C0000500A011D5FEFF1B0030A0E3343084E5F9
:1014D0000000A0E3CCFFFFEA107091E5000057E3A5
:1014E000FAFFFF0A030012E30030A0131430910545
:1014F000006091E5083081E5007081E5076046E015
:10150000000056E3F1FFFFDA0630A0E10720A0E17A
:101510000500A0E1288094E5201094E50FE0A0E10B
:1015200018FF2FE1000050E3B3FFFFDA007087E0FF
:10153000006046E0F1FFFFEA01004020103091E535
:10154000000053E370402DE90300001A0050A0E3AF
:101550000500A0E17040BDE81EFF2FE1000050E350
:101560000050A0E10140A0E10200000A203090E517
:10157000000053E3BEFCFF0BFC30D4E1000053E35A
:10158000F1FFFF0A642094E5010012E30200001A53
:10159000020C13E358009405FFFDFF0B0500A0E1CA
:1015A0000410A0E170FFFFEB643094E5010013E349
:1015B0000050A0E1E5FFFF1ABC30D4E1020C13E3B8
:1015C000E2FFFF1A580094E5F9FDFFEBDFFFFFEAA9
:1015D000001050E220309F1500009315D6FFFF1A2F
:1015E00010402DE914209FE514109FE514009FE59D
:1015F000C4FCFFEB1040BDE81EFF2FE118000020E7
:101600000C0000203C1500001C0000200030A0E36E
:1016100070402DE928509FE50040A0E10100A0E1C5
:10162000003085E57BFBFFFA010070E30200001A41
:10163000003095E5000053E3003084157040BDE8AC
:101640001EFF2FE1C81100203E410C4111412741EE
:1016500036410341064115410F410E4126411341D8
:101660002941024119410A410B4100003E410C4110
:101670001141274136410341064115410F410E41B9
:10168000264113412941024119410A410B41000001
:101690000DC0A0E1F8DF2DE904B04CE228D04BE208
:1016A000F06F9DE81EFF2FE1A00200000DC0A0E139
:1016B000F8DF2DE904B04CE228D04BE2F06F9DE852
:0816C0001EFF2FE16002000093
:0816C80008ECFF7F01000000A7
:0416D0000000000016
:1016D4000000000070000020006CDC02000000002C
:1016E400030000008C1000201C00002000000000FB
:1016F4008C100020F41000205C1100200000000079
:1017040000000000000000000000000000000000D5
:1017140000000000000000000000000000000000C5
:1017240000000000000000000000000000000000B5
:101734000000000000000000E80E0000D2110020AC
:040000030000045D98
:00000001FF
