:1008000000100020F1170000FD090000FD090000A4
:1008100000000000000000000000000000000000D8
:10082000000000000000000000000000FD090000C2
:100830000000000000000000FD090000FD090000AC
:10084000FD090000FD090000FD090000FD09000090
:10085000FD090000FD090000FD090000FD09000080
:10086000FD090000FD090000FD090000FD09000070
:10087000FD090000FD090000FD090000FD09000060
:10088000FD090000FD090000FD0900000122014BE7
:100890001A707047880200200122014B1A707047BD
:1008A00088020020014B18607047C046900200206B
:1008B000014B58607047C04690020020064B08303C
:1008C0004001185C802905D14006400F431E984125
:1008D000C0B270474007F9E700500041074A53692A
:1008E0009B0B9B0353610222054B1A729979823A42
:1008F0000A439A711A7A9207FCD570478C0500203A
:10090000FF500041F8B51C4C0022E3688B4203DD28
:100910003F320A4053425A4102239C461034002978
:1009200004D1002A01D0FFF7D9FFF8BD0D004029FE
:1009300000DD40250023AB421ADB104EAF043461CA
:100940007369BF0C9B0B9B033B43736173690C4F33
:100950003B40736166460B4B1E7280269F79764240
:100960003E439E711E7AB607FCD5491B4019D6E757
:10097000C65C1E550133DEE7900200208C05002086
:10098000FF3F00F0FF500041030010B55A78007897
:1009900008491202024300208A420AD1D9799A7981
:1009A000090211431C2900DD1C210348FFF7AAFF9F
:1009B000012010BD8106000068250000030083218E
:1009C00010B55A78007812020243890100208A4249
:1009D00010D15A79197912020A43072A0AD1D97912
:1009E0009A7909021143AA2900DDAA210248FFF7DA
:1009F00089FF012010BDC04638260000FEE7C02355
:100A00008022DB051202002801D09A6170475A61EA
:100A1000FCE7C0238022DB051900022010B512027A
:100A20005A604F310C782043042408700878A043A2
:100A30000870596A0A435A6210BDC0238022DB0540
:100A400012029A6002224F3319780A431A707047D3
:100A5000C0238022DB051900022010B592005A60E5
:100A600049310C782043042408700878A0430870AA
:100A7000596A0A435A6210BDC0238022DB05520026
:100A8000002801D09A6170475A61FCE7C023802298
:100A9000DB051900022010B552005A6048310C786D
:100AA0002043042408700878A0430870596A0A4358
:100AB0005A6210BD70B5C024E405802322000225CF
:100AC0000426DB0163604E321178294311701178DE
:100AD000B1431170626A13436362FFF79AFF2023E8
:100AE00022006360453211780D4315701178B143CF
:100AF0001170626A13436362FFF7AAFFFFF7C6FF34
:100B000070BDF8B50400094E094F002C00D1F8BDA6
:100B10002500B44200DD054D3800FA216843890004
:100B200001F0CEFC0138FDD1641BEEE7A086010088
:100B3000283C00000F22030C4340180A58400309C8
:100B40004340034813401841012318407047C046F2
:100B500096690000F7B50F273C4C0740236D050050
:100B600038000E000193FFF7E5FF7F0040010743C7
:100B7000812008213843019B9847FFF74AFFA36D66
:100B8000606D9847E36D0320984702230700012812
:100B900036D11D4224D0E36D202098470500FFF791
:100BA000C9FFE36D019038009847019B834200D054
:100BB0000737002E00D03560A36D606D9847FFF7B2
:100BC0003CFFC0238022DB0512025A61206EA36D18
:100BD0009847C0238022DB05120238009A61FEBDCF
:100BE000A36D606D9847FFF728FF2021236D3068C3
:100BF00098473068FFF79EFF256D3900A847E0E76A
:100C0000811EA26D99431CD121006431097800290D
:100C100003D01D4201D021209047A36D606D9847FD
:100C2000FFF70BFF230064331B78002BD1D0AD07F7
:100C3000CFD4C0238022DB0512025A612120A36D8C
:100C4000C6E7606D21309047C3E7C04690020020A0
:100C5000F7B5C0268027254C254DA368F6059B00D7
:100C6000EB189B6E3F02019000930220AB6DB761C1
:100C700098470220AB6D7761984780235B00B36192
:100C8000A368AA6D9B00E318D8689047009AE36AAE
:100C9000511E01989847A368E26A9B00E3181B6BFA
:100CA000002B1ED00121904780235B00B361A36815
:100CB0009B00E418206BAB6D013898470120AB6DA9
:100CC000B7619847AB6D01209847C0248023E405A5
:100CD0001B0263610120AB6D984780235B00A36119
:100CE000F7BD0121B7619047ECE7C0461003002033
:100CF000900200208023F0B585B00190019A082071
:100D000003915B029A4202D0073810400A303B4BF5
:100D10001A6D824202D01865FFF79AFFC02680271D
:100D2000374CF6053F020120A36DB7619847334D5C
:100D30007761A868A36D02309847019B0321581082
:100D40006B6D9847022817D1AA6DAB68D31A02932E
:100D50005A1E019B03422BD1039B1868EB6A002AA1
:100D600045D0202198470298A36D0238984701206A
:100D7000A36DB76198472DE0013843425841B761F0
:100D80004500A36D01209847A36D01209847C02618
:100D90008023F6051B0273610120A36D9847802311
:100DA0005B00B361206EA36D9847280005B0F0BDCD
:100DB000EB6D002A10D02020984705000298A36D03
:100DC000023898470120A36DB7619847039B002B19
:100DD00000D01D600125D7E71F209847EB6D0190DB
:100DE0000120B7619847019BC5071D43EEE71F210E
:100DF00098470121EB6AB7619847EBE710030020A1
:100E0000900200200A4903000A6E10B5012A0CD096
:100E10000020022A0AD18A6D9A4207DD054A9C0009
:100E20001219926E042A01D18B60012010BDC046B8
:100E30001003002090020020F7B5002405000E00EA
:100E400020000E4B0E4F0193BB6EA34200DCFEBD93
:100E50003B6E012B0BD131002800FFF77BFE0228EF
:100E6000F5D1019B1B78002BF1D10134ECE7022B6B
:100E7000F5D131002800FFF73DFFF0E774030020B3
:100E8000100300200200022318401A4209D0054B2B
:100E90001B6E1A40D0B2012B03D0023B5A42534181
:100EA000D8B2704710030020094A0A4B1278002A72
:100EB00003D11A6F596F914204DC012200206C3378
:100EC0001A707047996F501C1867885CF9E7C04624
:100ED0007C030020100300200B4A0C4B1278002AE0
:100EE00004D11A6F596F891A012904DC01220020EC
:100EF0006C331A707047986F81184978805C0902CA
:100F0000023208431A67F5E77C0300201003002033
:100F10000F4A30B512780F4B002A04D11A6F596F5F
:100F2000891A032904DC012200206C331A7030BDB9
:100F30009D6FA918C8788C7800062404204349784E
:100F4000AC5C09022043043208431A67EFE7C0464D
:100F50007C03002010030020094A10B51278094BC9
:100F6000002A04D10849DA6F0C68944203DC01229C
:100F70006C331A7010BD4968541CDC678854F9E75B
:100F80007C03002010030020900300200D4B10B5BF
:100F90001B780D49002B05D10C4CCB6F2268D21A5F
:100FA000032A03DC01236C310B7010BD6268040A54
:100FB000D054D21854700433040C000E9470D070C6
:100FC000CB67F2E77C030020100300209003002091
:100FD000034BDB6F834202DD024B5B6819547047A1
:100FE000100300209003002010B5FFF75DFF040000
:100FF000F02806D10120FFF7AFFF0320FFF7ACFF79
:1010000010BDFE2804D10120FFF7A6FF0220F5E75E
:10101000FF2807D10220FFF79FFF4020FFF79CFF2A
:101020000020EBE70020FFF797FF012C17D0022CE0
:1010300017D0032C17D00323042CE1D10D4ADB0079
:10104000D218146A207800280FD1FFF785FF0A4BC9
:101050000120D96F0239C9B2FFF7BAFFD0E70023E8
:10106000ECE70123EAE70223E8E70134FFF774FF26
:10107000E8E7C046682500001003002010B5FFF720
:1010800013FFFFF711FF0020FFF766FF10BD70B5DB
:10109000FFF70AFF274E041E21D1FFF7CEFCC02325
:1010A00080228020DB0512029A610222224CC001BC
:1010B0009860217811432170202198611F48996020
:1010C0000478224302709961FFF7C2FCFFF7DEFC4F
:1010D00001233366306EC0B2FFF73EFF70BD0023C0
:1010E00033660128D9D00228F4D1FFF7A6FCC02529
:1010F00080238022ED051049D2011B02AB61AA605A
:101100000B782343DBB20B70AA6120220B49AA6043
:101110000B782343DBB20B70AA61FFF799FC8022A6
:1011200007495200AA600B782343DBB20B70AA6117
:101130003466CFE7100300204E00006045000060D9
:101140004800006010B5FFF7B5FC0020024B1866A0
:10115000FFF702FF10BDC0461003002010B5FFF7D7
:10116000A3FE074B1866FFF7B7FE064B9866FFF71E
:10117000B3FE054B98600020FFF7EEFE10BDC046A1
:10118000900200201003002090030020F0B5002002
:1011900089B0FFF7E1FE0020FFF7DEFEFFF784FED7
:1011A000FFF730FE039000286ED0FFF77DFE00238E
:1011B0001E001C0005900190019A002A09D0584990
:1011C000584A0978002904D16C3212780292002A18
:1011D0000DD0012C4DD1002E00D198E007A90E2092
:1011E000FFF72AFE04000798FFF7D0FE41E0FFF763
:1011F0005BFE0500002E1AD0FFF744FE07A906008B
:101200002800002E00D10E20FFF716FE0400012852
:101210002FD10798FFF7BAFE002E08D00023039ABB
:101220000292019A0124013A029E0192C4E702232C
:101230001D425AD02E000E331E401D423DD0FFF7F6
:1012400067FE04902800FFF71DFE002803D0002150
:101250002800FFF7F1FD0026334FBB689E4215DBE7
:10126000314B079ADB681340049A9A4221D010232D
:101270001C43059B019A0120991AC9B2FFF7A8FEE9
:101280000220E1B2FFF7A4FE09B0F0BD280007A9D3
:10129000FFF7D2FDFA68079B040013400128DFD155
:1012A000049A9A42DCD01E4B1B78002BD8D1013611
:1012B000D2E7012CDDD10023B3E72800FFF7E2FDE0
:1012C000002807D031002800FFF7B6FD04000128F0
:1012D000A4D0CEE7280007A9FFF7AEFD040001283F
:1012E000C7D10798FFF752FEE5E7FFF711FE20236D
:1012F00007901D4202D00C4BD860DCE7280007A9FC
:10130000FFF79AFD04000128B3D1039B89E7002B66
:10131000AFD031000E20FFF78FFD0400A9E7C046D3
:10132000740300201003002090030020F0B500207B
:1013300087B0FFF711FE0020FFF70EFE0020FFF739
:101340000BFEFFF7B1FDFFF75DFD00283CD0FFF776
:10135000C3FD0190002837D0FFF7A6FD022304004B
:10136000060007001C40184230D0FFF78BFD002715
:10137000019A030094463C00634402900393019B4E
:10138000BB4200D10E26300005A9FFF755FD050030
:1013900001280CD1029B002B01D0002F03D005980F
:1013A000FFF7F4FD0134039B0137BB42E7D1012075
:1013B000E1B2FFF70DFE21120220C9B2FFF708FECD
:1013C0000320E9B2FFF704FE07B0F0BDFFF7A0FD70
:1013D00005A905903800FFF72FFD05000128E6D18B
:1013E000019B0134A342F1DC00210E20FFF724FD14
:1013F0000500DCE710B50020FFF7AEFD10BD07B516
:10140000FFF752FDFFF7FEFC002803D1FF30FFF786
:10141000A3FD07BDFFF77CFD0A4B01901B6E012B5E
:1014200006D1002001A9FFF795FB0020C0B2EEE72E
:10143000FF20022BFAD1802001A94002FFF75AFCBD
:10144000F3E7C0461003002010B5FFF745FDFFF796
:1014500058FB0020FFF780FD10BD10B50020FFF7FE
:101460007BFD0020FFF778FD10BD70B5FFF71CFD78
:101470000400FFF719FD0500FFF74AFD01210600F2
:101480000D4206D0C0238022DB05D2010C4235D0AC
:101490009A610220054202D02040FFF7B0FA0420F2
:1014A000054202D02040FFF7E7FA2D0605D5C023FC
:1014B0002022DB05240623D59A61FA2080007043A0
:1014C000FFF71FFBC023DB051C6A186A196A0004BA
:1014D0001A6AC9051B6AC00FC90F8900400064045D
:1014E00092050843E40FD20F9B06D2002043DB0F86
:1014F0001043DB011843FFF72FFD70BD5A61C8E7A9
:101500005A61DAE7F8B5FFF703FD114B0100984285
:1015100015DC104800F0D4FF0F4F104E104D114C49
:101520001149124A124BDD659F651E659860114B8B
:101530000020DC62D9655A65FFF70EFDF8BD00207A
:101540000D4F0E4E0E4D0F4C0F49104AEAE7C046A4
:10155000009F2400207E7500010000202D00002047
:10156000C10000206D000020510100208D010020ED
:101570009002002010030020AD000020FD0000209C
:1015800029010020D9010020050200202D020020A1
:10159000F8B5FFF789FC08260400002C03D12000D1
:1015A000FFF7DAFCF8BD2500082C00DD3500044B00
:1015B000641B1F6DFFF778FC2900B847EDE7C046B4
:1015C0009002002010B5FFF76FFC0323054A03408B
:1015D000013340075365C00F643210700020FFF7DD
:1015E000BBFC10BD90020020F0B5244B85B01B6EF3
:1015F000012B04D0FF20FFF7AFFC05B0F0BD0020A9
:10160000FFF7AAFCFFF750FC002303900193019A17
:10161000039B934202DCFFF710FAEEE7FFF744FC6E
:101620003F243F230440184200D14024144E0006BA
:1016300011D5FFF7EEF908272500082C00DD3D0045
:10164000F36D28009847C0B2FFF786FC641BF3D106
:10165000019B0133DAE7FFF7F0F908272500082C92
:1016600000DD3D00336D641B0293FFF71DFC290074
:10167000029B9847002CF1D1EAE7C04610030020F6
:1016800090020020F0B5204E85B0336E022B04D0BE
:10169000FF20FFF761FC05B0F0BD0020FFF75CFC08
:1016A000FFF702FC002303900193019A039B9342EE
:1016B000F1DDFFF7F9FB3F24050004403F23402004
:1016C00028401D4200D14024FFF799F92700082C3B
:1016D00000DD08272B060ED5736D0293FFF7E4FBA0
:1016E0003900029B9847C0B2FFF736FCE41BEDD1EE
:1016F000019B0133D8E7F36A0293FFF7D5FB39006A
:10170000029B9847F2E7C04610030020F7B5FFF7A9
:10171000CBFB082803DDFF20FFF71EFCF7BD0024EC
:10172000260083000F4D00930F4B104FA865AC604F
:101730000193009B9C4207D1019B303568331C19F3
:10174000A3420AD10020E7E7FFF7AEFB2B000C33E2
:10175000E650E05136180434EBE704CBB61A40C526
:10176000EEE7C0461003002090020020F80200209F
:10177000F7B51D4F3B6E022B03D0FF20FFF7ECFBAC
:10178000F7BDFFF791FBFFF73DFB0028F5D0C02424
:1017900080260E20FFF75CFA144DE4053602AB6D8F
:1017A0000120A66198476661B868AB6D0230984722
:1017B000FB6D1F209847FB6D0190A66101209847A3
:1017C000019BC7071F430120AB6D9847AB6D0120FC
:1017D0006661984780235B000020A361FFF7BCFB94
:1017E0003800FFF7D3FBCBE7100300209002002066
:1017F00010B50A4A0A4B0B498B4209D300210A4B08
:101800000A4A934207D30A4B0A4A936000F016F83B
:1018100001CA01C3F0E702C3F3E7C046EC270000AA
:10182000000000208C020020900200208C06002086
:101830000008000000ED00E0FEE7C0460222F0B51F
:10184000E54B8DB05A60C2230021E448DB00E44A36
:101850008360E44B12681B689205818400AF9B0E85
:10186000920D1031C4680C42FCD0DF499B02134337
:10187000C162836293235B008384173BFF3BC26892
:101880001A42FCD0D94DDA4B6B606B785BB2002BFF
:10189000FBDB0024D74B00229C60596001211960BA
:1018A000D54BBB610023B869BE6902614361D34B6C
:1018B000C4601A00642064321470D14A1C665165F9
:1018C00011180C7007219160CE4914669165CE49BC
:1018D00098661165CD499C65D165CD4AB060DA62E4
:1018E000CC4ADA65CC4A5A65FFF7E4F82200CB4BC4
:1018F000FB6001341A605A600833102CF9D10123BF
:10190000C749013C0A78C74E1A430A700621C64AE5
:101910001078A0430143C548117001781943017044
:10192000602110782040014311702022C049C8690D
:101930000243CA61BF4A6A80327813433370B47875
:10194000E407E40FE5B2002DF9D11F21A54B328D3C
:101950001B68FA61580B084082017A61F869B64A3F
:1019600010400200786902433285328D980C08409D
:101970008A4302433285328DB0499B015B0F0A4096
:101980001B031343012233859D4B5242DA60AC4B5B
:10199000023229001800FF32FB6100F0C1FC7F22F7
:1019A000FB69A8497362337813403370042332789B
:1019B00013430C22337033899343338133890B3AB9
:1019C00093433381082333838A7ADB1813438B7262
:1019D0000223327813439C4A33704C705470902227
:1019E0009A4B52009C5420329C5420329C542032FA
:1019F0009C5420329C5420329C54884B944A212180
:101A00009A60944A5A61944B1A6820233A62934A26
:101A1000FB1812685A60924A12689A60914A1268DA
:101A2000DA60914A4A43585D01354240102DF9D1A0
:101A3000B8690023183084468C4C013D1000990091
:101A4000C840010060462940615C19540133082BED
:101A5000F4D10022BB69B9690133DA77FA22002395
:101A6000C0248A62CB621021E4058148A16003781A
:101A7000F83A13430370A16180217E4B090661602F
:101A8000187802431A700422187890431870606A1C
:101A900008436062A16119780A431A70554B564D8C
:101AA0001B68DB0307D52A696B6901200021121826
:101AB0004B412A616B612A696B69E96A994217D8BF
:101AC00002D1A96A914213D8FA20002112184B4181
:101AD000AA62EB622B0030331A781023002A00D15F
:101AE00045E1C022D205D3612B00002230331A70A9
:101AF000B38B1B0744D508239022B3837833B3728A
:101B00000023504952004B70B3542032B35420325A
:101B1000B3542032B3542032B3542032B354203261
:101B2000B35411334B708B79A13AFF3A13438B7145
:101B30008023C0204A795B4213434B71404B0C0019
:101B40005A694D4980050A4002435A612A003432DD
:101B50001A605A680A40104358605968474A114051
:101B6000802252030A435A605A68920B92035A60C9
:101B70001023A27A1343A3720123A27A1343A37200
:101B8000304B1B7ADB06DA0FFA61002B00DBE4E254
:101B90001B4B6C8FDC602A4B5B689B049B0C082BF7
:101BA00000D0ECE0AB8E364A934200D195E200DDE6
:101BB000F1E00222FF32934200D18EE201329342E1
:101BC00000DBE2E0822B00D14CE200DDD3E0803B81
:101BD000012B00D840E255E00040004100080040E1
:101BE000286080002460800080BB0000000C004062
:101BF0000007210010E000E0900300201003002007
:101C000090020020010000202D000020C1000020D3
:101C10006D000020510100208D0100200C050020E6
:101C200058000060005000413C0000605900006016
:101C300000040040064000003FF8FFFFFF8FFFFF59
:101C40008C050020FF5000411F51004120500041F1
:101C500099080000A50800000CA0800040A08000AA
:101C600044A0800048A08000051500007C270000EB
:101C7000440000605F000060FFFFFF8FFF3F00F047
:101C80000103000034352800FEF77EFE002804D151
:101C90002800FEF793FE002871D0CD4ACD49536845
:101CA0009B0B9B03536040234A7913434B710123E1
:101CB0000B720122C84B5242DA601023C54A1372DC
:101CC0000124338CFD689BB2FB61FB69002B3AD089
:101CD000C24B6201D3183B61BE4BF869D3189C46D6
:101CE0001B7AD9B279610121A14088430121F861B1
:101CF0000B4211D04020BA49531859790143597108
:101D0000012361460B72B24B9B185868EB68800444
:101D1000800C002B00D0984702217B690B420ED02B
:101D2000AF4A63019B1880221879524202431A710C
:101D30003B69FF331972AB68002B00D09847013420
:101D40000835082CC1D1A74BBB601B78002B00D0F5
:101D50001EE2C023DB051B6A002B00DA9EE6BFF300
:101D60004F8FA14BA14ADA60BFF34F8FFEE7C0222D
:101D7000D2059361B8E680225200934282D120239B
:101D800094498A7913438B7193E7934200D1A7E179
:101D9000C0229200F1E7D022D200934200D1BDE0F0
:101DA00011DC934A934200D178E1FF32FF32934233
:101DB00000D067E7FEF792FD8023EA8E5B42134373
:101DC000DBB2B37269E788221201934200D13FE18E
:101DD0008032934200D055E72C00EB8E7434237090
:101DE000FEF77CFD2378002B00D156E740239C466C
:101DF000804BFB61FB695D78052D53D103227F2069
:101E00009C78DB7820401A407A61FA69FB69527944
:101E10001B7912021A4392050023920D082A16D943
:101E20000133102A13D90133202A10D90133402A53
:101E30000DD90133802A0AD980212B0049008A421A
:101E400005D9FC33FF3393429B415B4206330200CA
:101E500007217D690832013564B20D4040010B4015
:101E60005201002C00DBDDE0B45C69312D018C43B4
:101E70002C43B4540224574941188D7A25438D725E
:101E80005649521815792C431471802415796442EF
:101E90002C431471584A1018426858491B070A40CD
:101EA0001A4342606246FB691B78D21A9446FA696B
:101EB000D318FB616346002B9CD10122494B802142
:101EC0001A706246444B4E4C1A605A604D4B4E4A53
:101ED00049031A624D4AA225DA61BA693C4B78324D
:101EE0001A645A6C6D0022400A435A645A6C920B71
:101EF00092035A644022705D10437055444818663E
:101F0000586E204001435966596E890B8903596602
:101F1000B2235B00F15C0A43F254BEE6EB8E1D0A6D
:101F2000032D1CD00AD8012D11D0022D00D026E798
:101F30002100402C00DD40212E480DE00F2D00D067
:101F40001DE72100212C00DD2121324804E0210081
:101F5000122C00DD12213048FEF7D4FC9DE6DBB2E6
:101F6000002B05D12100042C00DD04212B48F3E7D0
:101F7000052B00D903E76A463A61294A9B00D2182B
:101F800053691800FB6100F06BFA03007861684642
:101F900001335B00DA1DD208D200821A95466846EA
:101FA000002245700370851C7969914208DC21008C
:101FB0009C4200DD1900FEF7A5FC3B699D466CE6DE
:101FC000F969895C01322970002169700235EBE7FB
:101FD0008C050020FF50004190020020005000417D
:101FE000005100418802002000ED00E00400FA05E5
:101FF00002030000A42500009C050020FFFFFF8FC6
:10200000FF3F00F00C0500208D080000B108000023
:102010004804002014260000E4250000F8250000F4
:10202000E82500000721B45C8C432C43B454012400
:10203000AC4941188D7A25438D72AB4952181579F8
:102040002C431471402455792C435471A74A22E73C
:102050002800012174307FE700233B8420330221D4
:10206000F81879E77F2480232D8F2C401D4029000C
:102070002000FEF723FC002800D180E69A4B0834AC
:102080006401E418A379002D06D09B062022DB0F03
:10209000B818022103805FE7DB06F7E7EB8E002B21
:1020A00000D06CE62D8F7F332C001C401D4200D1E8
:1020B00065E601331D4029002000FEF7FFFB0028E4
:1020C00000D15CE6884B08346401E418627920236F
:1020D000002D00D1102313436371FEF7FFFBDCE5F5
:1020E000EB8E002B00D04AE62D8F7F332C001C4056
:1020F0001D4200D143E601331D4029002000FEF7B8
:10210000DDFB002800D13AE6774B08346401E31880
:102110009A79002D11D09206DFD5202219790A4331
:102120001A71DA795206D8D5714AA4184022227061
:1021300019793E3A0A431A71CFE7D206CDD510225B
:1021400019790A431A71DA799206C6D5684AA41831
:102150002022227019791F3AECE7624B1B7ADB07C9
:1021600000D4ADE5634CA36F002B0AD028005F4A72
:10217000343051688904890C9847FB69A367FEF7DE
:10218000ADFB4021574A93790B439371012396E5A8
:10219000594B1D68002D68D00022584C1A60210050
:1021A0002A00574800F006F9504A564B1464516C07
:1021B000194080235B030B435364536C40219B0BFA
:1021C0009B035364A2225200B35C0B43B35400231D
:1021D0004D4C3B614A4B6567A3674C4B0025FB6147
:1021E0004B4BFA697B604B4B2567536013004022D1
:1021F0001A6023006C331D70230064331D70FF23AD
:10220000E5672365FEF750FE7861FEF7A5FE424ABA
:10221000EB009B1819687869884247D15B6898473A
:10222000E06F7A683C69314B36493C32012C4DD124
:102230001C009034226094331A688004920B800C46
:10224000920302431A601A680A401A6086228023A9
:10225000FF32B15C5B420B43B3540023BA68137086
:102260000122FB6930331A7073E55D68002D00D1DF
:102270006FE50022294C5A6021002A00204800F016
:1022800099F81A4A1F4B1466516E194080235B035C
:102290000B435366536E40219B0B9B035366B22244
:1022A0005200B35C0B43B354012391E70135132D66
:1022B000AED17B69803B1F2B03D8FF20FEF74CFE7D
:1022C000AEE7FF210020FEF783FEA9E740201A6356
:1022D0005A6B920B920302435A635A6B0A405A6339
:1022E0002622B4E7FF500041005000418C05002039
:1022F0000750004110040020900200200804002034
:102300008C040020FF3F00F0100300209003002009
:1023100090040020CC040020E426000048040020A3
:10232000F0B5830741D0050004000327861804E0B8
:10233000297001353B4204D01C00631CB442F7D124
:10234000F0BD013A8218121B032A25D9FF240C4044
:1023500025022D192C042D190F2A28D91C00130031
:102360002600103B1B091B0110369B192560656078
:10237000A560E5601034A342F8D10F240C26144068
:1023800016402200002E07D0A2089200D21820C3C7
:102390009342FCD103222240002AD1D0C9B29A181C
:1023A000197001339A42FBD1CAE70300CCE714004D
:1023B000EAE7C046F0B5CE46474680B50F2A0ED8AC
:1023C0000500561E002A06D00023CC5C1A00EC54EF
:1023D00001339642F9D1C0BCB946B046F0BD030006
:1023E0000B4388469B0734D110261700B1460C00DA
:1023F0000300103F3F093F01C519A94466685E60AC
:10240000A6689E60E668DE60266810341E601E00C6
:102410001033AE42F2D1CF1939000F230C26103100
:102420008C461340164217D04446043B9B089B0041
:10243000FF181437061B0C688D1904312C60B94243
:10244000F9D16146043359184B441D0003231A4047
:10245000B7E70500561EB7E74D461A00B1E7C0467C
:1024600010B583070AD00300032102E001330B42B9
:1024700005D01A78002AF9D1181A10BD030019687E
:102480000C4A0D4C8A188A4322420FD15968094AD6
:1024900004338A188A43224208D15968054A043312
:1024A0008A188A432242F1D000E001331A78002AC8
:1024B000FBD1E1E7FFFEFEFE808080807047C046D2
:1024C000002941D010B404004C40A446012300224E
:1024D000002900D54942002800D5404288422CD32B
:1024E00001242407A14204D2814202D209011B0126
:1024F000F8E7E400A14204D2814202D249005B0025
:10250000F8E7884201D3401A1A434C08A04202D38C
:10251000001B5C0822438C08A04202D3001B9C08CD
:102520002243CC08A04202D3001BDC08224300282F
:1025300003D01B0901D00909E3E710006446002C11
:1025400000D5404210BC704701B50020FFF7B6FF30
:1025500002BDC0460029F7D003B5FFF7B3FF0EBC9C
:102560004243891A1847C04605010900A101150018
:1025700026FF00750895400900818275089540097D
:10258000009182C0010000008D27000002000000C1
:102590009A27000003000000A803002004000000A8
:1025A000B42700000902400002010080FA0904007B
:1025B000000203000004092111010001221C000790
:1025C00005810340000107050203400001090401E1
:1025D0000002FF0000050705030240000007058414
:1025E00002400000120110020000004066660199DE
:1025F00000010102030100000403090400000000BF
:102600008D2700009A270000A8030020BA270000A9
:10261000CF270000050F2100011C100500DF60DD41
:10262000D88945C74C9CD2659D9E648A9F00000353
:1026300006AA0020000000000A00000000000306B7
:10264000AA00080002000100A0001400030057497E
:102650004E555342000000000000000000008400BE
:10266000040007002A00440065007600690063004A
:10267000650049006E00740065007200660061002C
:1026800063006500470055004900440073000000E6
:1026900050007B00430044004200330042003500FC
:1026A000410044002D0032003900330042002D006B
:1026B00034003600360033002D0041004100330065
:1026C00036002D0031004100410045003400360045
:1026D0003400360033003700370036007D0000003C
:1026E0000000000000000000E90F000001000000F1
:1026F0007D100000020000008F10000003000000A9
:1027000045110000040000005D11000005000000FC
:102710008D110000060000002D13000007000000CE
:10272000F513000008000000FF130000090000007E
:10273000491400000A0000005B14000010000000B3
:102740006B140000110000000515000012000000CD
:102750009115000013000000C51500001D000000C9
:10276000E9150000140000008516000015000000A7
:102770000D170000160000007117000030313233D1
:1027800034353637383941424344454600416C655B
:10279000782054617261646F760047656E65726976
:1027A0006320434D5349532D44415020416461708F
:1027B00074657200322E302E3000434D5349532D34
:1027C0004441502076312041646170746572004349
:1027D0004D5349532D44415020763220416461705D
:0427E00074657200AA
:0427E400F8B5C0463E
:0427E800F8B5C0463A
:1027EC00C022802110B5084BD2059B68C901002876
:1027FC0000D110BD1C005161013CFDD11C00916148
:10280C00013CFDD10138F2E790020020F7B5C0265B
:10281C000400002501270191F605019B9D4200DB78
:10282C00F7BD2000384000F00FF98022064BD20192
:10283C0072619B6819000139FDD1B261013BFDD178
:10284C0064080135E9E7C04690020020F7B5C026C0
:10285C000400002501270191F605019B20009D42F3
:10286C0000DBFEBD384000F0F7F88022064BD201A9
:10287C0072619B6819000139FDD1B261013BFDD138
:10288C0064080135E9E7C04690020020C02380228D
:10289C00DB05D201013800D270475A619A61F9E721
:1028AC000022F0B5C0248026010010000A4BE4057C
:1028BC009D68F6018A4200DBF0BD2B006661013B8E
:1028CC00FDD1236A2F00A661013FFDD11B04DB0F54
:1028DC00934001321843EDE790020020F7B5C02673
:1028EC000400002501270191F605019B9D4200DBA8
:1028FC00F7BD2000384000F0A7F88023DB0173619E
:10290C006408B3610135F0E7002230B5C02480259E
:10291C0001001000E405ED018A4200DB30BD656169
:10292C00236AA5611B04DB0F934001321843F3E7C4
:10293C000022F0B5C0248026010010000A4BE405EB
:10294C009D68F6018A4200DBF0BD2B006661013BFD
:10295C00FDD1236A2F00A661013FFDD19B05DB0F42
:10296C00934001321843EDE790020020F7B50024A4
:10297C00C027050026000191FF05019B9C4201DB4D
:10298C003000FEBD0120284000F066F88021094B84
:10299C00C90179619A681300013BFDD13B6AB961A9
:1029AC00013AFDD19B05DB0FA3406D081E4301349A
:1029BC00E3E7C04690020020F7B5C02604000025CE
:1029CC0001270191F605019B20009D4200DBFEBD15
:1029DC00384000F041F88023DB0173616408B36177
:1029EC000135F0E7002230B5C0248025010010002D
:1029FC00E405ED018A4200DB30BD6561236AA56107
:102A0C009B05DB0F934001321843F3E7F7B5002425
:102A1C00C027050026000191FF05019B9C4201DBAC
:102A2C003000FEBD0120284000F016F88022D201B3
:102A3C007A613B6A6D089B05DB0FA340BA611E43AC
:102A4C000134EAE7FFFFFFFF01B40248844601BCF2
:102A5C00604700BFFF09000001B40248844601BC76
:0C2A6C00604700BF790A000001FFFFFF77
:04000003000017F1F1
:00000001FF
